:1004BB0001020408102040803F065B4F666D7D07EC
:0204CB007F6F41
:10041800020A0400011400010C05020D000001117C
:1004280000011205010F000113010110000115015F
:06043800010800010900AB
:0404CD007F147E001A
:0B04D100EF1FAC0670011E4C70F622FD
:0704F000C2B2C2B1C2B0228A
:10000300E4FEC2B1EF3392B2D2B1EF25E0FF0EBEF0
:0200130008F0F3
:0100150022C8
:0B04DC00C2B1C2B0D2B0C2B2D2B02296
:02048500A907C5
:10048700E4FFFEE50B2FF582E50A3EF583E9F00F61
:0A049700BF00010EEF64204E70E973
:0104A1002238
:10032A00E5082410FFE433FEE50B2FF582E50A3ECB
:10033A00F583E0FF120003E50B2508F582E4350A90
:10034A00F583E0FF120003E508C39408500F7FFF0E
:10035A00120003E5089004BB93F4FF800DE50890B2
:10036A0004B393F4FF1200037FFF1200031204DCAC
:05037A00050853080F07
:01037F00225B
:10043F00850E82850D837478F0A314F0850E828566
:10044F000D83A3A314F0850E82850D83A3A3A3149C
:05045F00F075110422FC
:0C02C500E0FEC4540FFFEE540FFDD20009
:0202D1008F1983
:1002D300ED131313541FF51AED5407F51BE51A75A7
:1002E300F010A47C002519FFEC35F0FEE50B2F3050
:1002F3000018F582E50A3EF583C083C082E0FFE57E
:100303001B9004BB93FEEF4E8017F582E50A3EF582
:1003130083C083C082E0FFE51B9004BB93F4FEEF30
:060323005ED082D083F0E1
:0103290022B1
:1004A200E4FBEBC395115010E50E2BF582E4350DFC
:0804B200F5831202C50B80EA7C
:0104BA00221F
:10025D00209018E512640160121204CD20900CE577
:10026D001264016006751401E4F512209114E51273
:10027D0060101204CD20910AE51260067514017507
:10028D00120120921AE512640360141204CD20921B
:10029D000EE51264036008E514B401037512022023
:1002AD0093152093121204CD20930CE51264026075
:0802BD000675120375140122FD
:0A001E00E512C394054003020161DE
:10002800E51124FFFFE434FFFEE50E2FF582E50D10
:100038003EF583E0F516751701751801E51114F5FD
:1000480017E517C394014026E51724FFFFE434FFA2
:10005800FEE50E2FF582E50D3EF583E0FFE50E2562
:1000680017F582E4350DF583EFF0151780D3E51207
:10007800701C850E82850D83E0C4540F7004F5153D
:10008800806D850E82850D83E024F0F08061E51295
:10009800B4011F850E82850D83E0C4540FFFBF0F86
:1000A80005E4F5158049850E82850D83E02410F05E
:1000B800803DE512B4021A850E82850D83E0540F47
:1000C8007004F5158029850E82850D83E014F08073
:1000D8001EE512B40319850E82850D83E0540FFFC7
:1000E800BF0F03E4F515850E82850D83E004F085C6
:1000F8000E82850D83E0B51015E5822511F582E4A1
:100108003583F583E516F005117513018010E516A2
:10011800C4540FFFE516540FFDC2001202D1850E1C
:1001280082850D831202C5E518C395115022E50E8C
:100138002518F582E4350DF583E0FF850E82850DDF
:1001480083E0FEEFB50605E4F5158004051880D7B1
:09015800E51570057FFF12048516
:01016100227B
:1003D6000509E51364017039FFEFC395115012E565
:1003E6000E2FF582E4350DF583E0650960030F8075
:1003F600E8EFB51116E4F513850910E510C4540F9E
:10040600FFE510540FFDD2000202D174112509F543
:0104160009DC
:0104170022C2
:10038000209508E5146004E515704A2096161204BD
:10039000CD209610E50CC394024009150C7F307EE9
:1003A000751204D12097161204CD209710E50CC3C6
:1003B00094095009050C7F307E751204D1C3740A6C
:1003C000950CFFE49400FE74C32FF58274043EF58F
:0603D00083E493F5A02276
:10046400751501751205751301E4F50FF514758DF5
:100474003C758BB01204F0FF12048512043F020491
:01048400A2D5
:1001EE00758901758D3C758BB0D2AFD2ABD28EC3F3
:1001FE00740A950CFFE49400FE74C32FF582740408
:10020E003EF583E493F5A01204F0E4FF1204851288
:10021E00043F1204A212032A1204CD120380E51524
:10022E006401701D20951A12025DE50C75F00AA48A
:10023E00B50F09E4B5F005F50F12001E1203D680B6
:0F024E00D42094D11204CD2094CB12046480C626
:03001B000204E7F5
:0904E700758D3C758BB0050F32D8
:0300000002016298
:0C016200787FE4F6D8FD7581200201A929
:10016E000201EEE493A3F8E493A34003F68001F2B8
:10017E0008DFF48029E493A3F85407240CC8C33392
:10018E00C4540F4420C8834004F456800146F6DF61
:10019E00E4800B0102040810204080900418E47ED5
:1001AE00019360BCA3FF543F30E509541FFEE49356
:1001BE00A360010ECF54C025E060A840B8E493A31D
:1001CE00FAE493A3F8E493A3C8C582C8CAC583CA48
:1001DE00F0A3C8C582C8CAC583CADFE9DEE780BE00
:01043E0000BD
:00000001FF
